:100000000C94E0000C9408010C9408010C94080175
:100010000C9408010C9408010C9408010C9408013C
:100020000C9408010C9408010C9408010C9408012C
:100030000C9408010C9408010C9408010C9408011C
:100040000C94691B0C9408010C94D91B0C94B31BE1
:100050000C9408010C9408010C9408010C940801FC
:100060000C9408010C94080100407A10F35A00A087
:10007000724E18090010A5D4E80000E87648170071
:1000800000E40B54020000CA9A3B000000E1F505B1
:10009000000080969800000040420F000000A086FB
:1000A00001000000102700000000E803000000002D
:1000B0006400000000000A000000000001000000D1
:1000C00000002C76D888DC674F0823DFC1DFAE59EB
:1000D000E1B1B796E5E3E453C63AE651997696E87E
:1000E000E6C28426EB898C9B62ED407C6FFCEFBC02
:1000F0009C9F40F2BAA56FA5F490055A2AF75C932D
:100100006B6CF9676DC11BFCE0E40D47FEF520E662
:10011000B500D0ED902E0300943577050080841E45
:10012000080000204E0A000000C80C333333330FA0
:10013000986E12831141EF8D2114893BE65516CF3D
:10014000FEE6DB18D1844B381BF77C1D901DA4BB49
:10015000E424203284725E228100C9F124ECA1E5FE
:100160003D270000000023002600290000000000B9
:10017000240027002A0000000000250028002B0092
:100180000000000800020100000304070000000056
:100190000000000004040404040404040202020237
:1001A000020203030303030301020408102040803A
:1001B0000102040810200102040810205B1C99228F
:1001C00011241FBECFEFD8E0DEBFCDBF13E0A0E00B
:1001D000B1E0ECE2F5E502C005900D92A238B1075E
:1001E000D9F725E0A2E8B3E001C01D92AE33B20713
:1001F000E1F710E0CFEDD0E004C02197FE010E94AE
:100200006F28CE3DD107C9F70E948F1D0C94892A13
:100210000C940000CF93DF93EC01FA013296E60FC5
:10022000F71FDC019D012C1B3D0BCF01861B970B9B
:100230004D91442311F04193F5CFAC01421B530B78
:10024000640F751FFB013297308361507109FB0108
:100250002083DF91CF9108958091BB049091BC04DD
:10026000009711F480E02FC0DC01ED91FC9106882D
:10027000F789E02D09952091DE043091DF0481118A
:100280001FC0232B79F78DEF9FEF9093DF048093AE
:10029000DE048091BB049091BC04DC01ED91FC91E3
:1002A0000680F781E02D09958091BB049091BC04F4
:1002B000DC01ED91FC910488F589E02D0995D2CF00
:1002C00081E0232B79F608958CBD9DBD0895FC0136
:1002D000818D928D0895089590E0FC01E058FE4FC5
:1002E0002491FC01E855FE4F3491FC01EC56FE4F81
:1002F000E491EE23C9F0222339F0233001F1A8F470
:10030000213019F1223029F1F0E0EE0FFF1FEA58F9
:10031000FE4FA591B4918FB7F894EC91611126C06E
:1003200030953E233C938FBF08952730A9F02830A5
:10033000C9F0243049F7809180008F7D03C08091FF
:1003400080008F7780938000DFCF84B58F7784BD66
:10035000DBCF84B58F7DFBCF8091B0008F7780930A
:10036000B000D2CF8091B0008F7DF9CF3E2BDACF95
:10037000CF93DF9390E0FC01E855FE4F24918C561B
:100380009E4FFC0184918823C9F090E0880F991F4B
:10039000FC01E459FE4FA591B491FC01EA58FE4FCF
:1003A000C591D49161110DC09FB7F8948C9120959F
:1003B00082238C938881282328839FBFDF91CF914C
:1003C0000895623051F49FB7F8943C91822F809544
:1003D00083238C93E8812E2BEFCF8FB7F894EC9189
:1003E0002E2B2C938FBFEACF3FB7F8948091BC039C
:1003F0009091BD03A091BE03B091BF0326B5A89B09
:1004000005C02F3F19F00196A11DB11D3FBFBA2FA6
:10041000A92F982F8827BC01CD01620F711D811D66
:10042000911D42E0660F771F881F991F4A95D1F7EB
:1004300008958F929F92AF92BF92CF92DF92EF92E8
:10044000FF924B015C010E94F4016B017C010E9450
:10045000F4016C197D098E099F09683E734081057E
:100460009105A8F321E0821A9108A108B10888EE4D
:10047000C80E83E0D81EE11CF11C81149104A10474
:10048000B10429F7FF90EF90DF90CF90BF90AF902D
:100490009F908F9008952FB7F8946091B803709152
:1004A000B9038091BA039091BB032FBF0895EF92D7
:1004B000FF920F931F93CF93DF9300D000D0CDB75F
:1004C000DEB7FA0120E08E010F5F1F4F9E2F9F774E
:1004D000EE0FEF2FEE1FFF0BF195309709F09068AC
:1004E000D801A20FB11D9C932F5F309779F730E0B0
:1004F000FB01E21BF30B8483FB01E21BF30B35963C
:10050000D801CD01801B910B821793071CF48D91AC
:100510008193F7CF2F5F3F4F8091BB049091BC0434
:100520008901040F151F621B730B6B5F7F4FDC018A
:10053000ED91FC910280F381E02DA80109957C01E9
:100540000E944B026093C7047093C8048093C9044F
:100550009093CA0481E00E151F0509F080E00F900A
:100560000F900F900F90DF91CF911F910F91FF90FF
:10057000EF9008958F929F92AF92BF92CF92DF92A9
:10058000EF92FF92CF93DF93EC010E944B024B015D
:100590005C018091BB049091BC04DC01ED91FC9165
:1005A0000084F185E02D0995892BB9F40E944B0256
:1005B0006B017C01C818D908EA08FB082091C30424
:1005C0003091C404A8EEB3E00E949327C616D70664
:1005D000E806F906F0F280E00DC08091BB0490912E
:1005E000BC04DC01ED91FC910284F385E02D0995BA
:1005F000888381E0DF91CF91FF90EF90DF90CF90E3
:10060000BF90AF909F908F9008952F923F924F92FE
:100610005F926F927F928F929F92AF92BF92CF9292
:10062000DF92EF92FF920F931F93CF93DF93CDB79B
:10063000DEB72A970FB6F894DEBF0FBECDBF1C0100
:100640008091BD049091BE040E94BA0281111CC029
:1006500060E070E0CB012A960FB6F894DEBF0FBEC3
:10066000CDBFDF91CF911F910F91FF90EF90DF9061
:10067000CF90BF90AF909F908F907F906F905F9042
:100680004F903F902F900895E091BD04F091BE04EB
:10069000D0801982EE24E394F12C812C912C54010A
:1006A000412C512C32014394CE0101960E94BA0292
:1006B000882371F287010F5F1F4F8981E091BD048C
:1006C000F091BE04EE0DFF1D8083E981AE2FAF7760
:1006D000B0E0A30192010E942727860E971EA81E54
:1006E000B91E37E0440C551C661C771C3A95D1F7AF
:1006F000E7FD3FC0BD2DB07FBE838FEF800FF101BE
:100700008083B03309F04CC08091BD049091BE0449
:10071000800F911F0E94BA02882309F499CF20917B
:10072000BD043091BE04C7010296820F931F0E9440
:10073000BA02882309F48CCF0E5F1F4FE091BD04ED
:10074000F091BE04D1018C91DF01A80FB11D11966B
:100750008C91119790E0982F882712962C91820FF8
:10076000911D208121FD0296F2E0E0E030E020E0E2
:100770001DC078010530110509F096CF8FEF9FEF6E
:100780009093DF048093DE048091BB049091BC04BD
:10079000DC01ED91FC910488F589E02D099558CF95
:1007A000F0E0E0E030E020E090E080E070E060E049
:1007B000CF2EDE2EE32EF22E28013B014C185D08D1
:1007C0006E087F084A825B826C827D822C01712CCC
:1007D000612C4F82588669867A864A805B806C805D
:1007E0007D804C0C5D1C6E1C7F1CC814D904EA046F
:1007F000FB0408F046C0CE0101960E94BA0288238D
:1008000009F426CF8091DC049091DD04009711F16A
:100810002E812033F9F4D1012C914EEF5FEF6FEF71
:100820007FEF421B510961097109440E551E661E76
:10083000771E2F81388549855A852415350546054B
:10084000570540F4DC01ED91FC910190F081E02D21
:10085000698109958091BF049091C0040817190718
:1008600050F48981E091BD04F091BE04E00FF11FC6
:1008700080830F5F1F4FBFEFCB1ADB0AEB0AFB0A27
:10088000ACCF8091DC049091DD04892B69F48091D8
:10089000BF049091C004B0E0A0E084159505A605C2
:1008A000B70510F410E000E0B80190E080E0D3CE8E
:1008B000AF92BF92CF92DF92EF92FF920F931F936E
:1008C000CF93DF936C017B018B01040F151FEB01AC
:1008D0005E01AE18BF08C017D10759F06991D60163
:1008E000ED91FC910190F081E02DC6010995892BD5
:1008F00079F7C501DF91CF911F910F91FF90EF9094
:10090000DF90CF90BF90AF900895FC01538D448D40
:10091000252F30E0842F90E0821B930B541710F0AA
:10092000CF96089501970895FC01918D828D9817B7
:1009300061F0A28DAE0FBF2FB11D5D968C91928D8F
:100940009F5F9F73928F90E008958FEF9FEF0895C0
:10095000FC01918D828D981731F0828DE80FF11D89
:10096000858D90E008958FEF9FEF0895FC01918DA4
:10097000228D892F90E0805C9F4F821B91098F739D
:10098000992708958EED93E00E94B60421E0892B0B
:1009900009F420E0822F089580E090E0892B29F06F
:1009A0000E94C20481110C9400000895FC01A48DE2
:1009B000A80FB92FB11DA35ABF4F2C91848D90E081
:1009C00001968F739927848FA689B7892C93A08964
:1009D000B1898C91837080648C93938D848D9813EE
:1009E00006C00288F389E02D80818F7D8083089581
:1009F000EF92FF920F931F93CF93DF93EC0181E06F
:100A0000888F9B8D8C8D98131AC0E889F989808115
:100A100085FF15C09FB7F894EE89FF896083E88948
:100A2000F98980818370806480839FBF81E090E03A
:100A3000DF91CF911F910F91FF90EF900895F62EC7
:100A40000B8D10E00F5F1F4F0F731127E02E8C8D61
:100A50008E110CC00FB607FCFACFE889F9898081A6
:100A600085FFF5CFCE010E94D604F1CFEB8DEC0FC0
:100A7000FD2FF11DE35AFF4FF0829FB7F8940B8FC3
:100A8000EA89FB8980818062CFCFCF93DF93EC012D
:100A9000888D8823B9F0AA89BB89E889F9898C9166
:100AA00085FD03C0808186FD0DC00FB607FCF7CF22
:100AB0008C9185FFF2CF808185FFEDCFCE010E9422
:100AC000D604E9CFDF91CF910895CF92DF92EF92D4
:100AD000FF92CF93DF93DC011796CC911797D0E06C
:100AE0006111DC2F18962C91189730E0220F331FDC
:100AF0002E593E4F50E040E0F90185919491FC0160
:100B0000F080BA0190E080E0EF2DEC23ED1310C0EF
:100B10004F5F5F4F1D96CD90DD90ED90FC9050970C
:100B20006C157D058E059F0538F36FEF7FEFCB01C8
:100B3000DF91CF91FF90EF90DF90CF9008958F924B
:100B40009F92AF92BF92CF92DF92EF92FF920F935C
:100B50001F93CF93DF93CDB7DEB7C054D1400FB60C
:100B6000F894DEBF0FBECDBF8C010E944B02F8018E
:100B7000C184D284E384F4849B01AC012C193D0927
:100B80004E095F0969017A0130EDC31637E0D306DB
:100B9000E104F104A8F48189C05CDE4F0FB6F8943B
:100BA000DEBF0FBECDBFDF91CF911F910F91FF90A0
:100BB000EF90DF90CF90BF90AF909F908F9008956F
:100BC00061877287838794871482138212821182CD
:100BD000108262E085810E94B80161E070E080E0EF
:100BE00090E00E94190261E0F80185810E94B8013D
:100BF00060E0F80185810E946C01F80186818551D1
:100C0000823028F58BE291E10197F1F762E0F8017B
:100C100085810E94B801F801828990E082309105B7
:100C200038F0880F991F880F991F05970197F1F7E2
:100C3000F89460E0C8010E9465056F3F7F4F8F4FB9
:100C40009F4F61F4F801118A789480E0A5CF64E1A8
:100C500070E080E090E00E941902D8CF61E0C80106
:100C60000E9465056F3F7F4F8F4F9F4F59F39E0145
:100C70002F5F3F4F79015E013FEBA31A3EEFB30AAE
:100C8000670160E0C8010E946505F6016083718319
:100C90008283938361E0C8010E946505F601648345
:100CA000758386839783F8E0CF0ED11CCA14DB04CA
:100CB00041F7789430E020E0F70180809180A280B5
:100CC000B3804481558166817781FFEF8F169F063F
:100CD000AF06BF0631F04F3F8FEF58076807780720
:100CE00019F4F801118AB1CFF90183E0F595E79580
:100CF0008A95E1F7E00FF11F8081880F8416950631
:100D0000A606B706F0F080832F5F3F4FF8E0EF0EA6
:100D1000F11C2832310581F6F8014481208181815E
:100D2000280F3327331F8281280F311D8381820FC3
:100D3000932F911D99274817190699F681E0818B09
:100D40002BCF8160E0CFCF92DF92EF92FF921F9383
:100D5000CF93DF93EC010E949F05882339F08E81A9
:100D60008C3009F44DC038F48B30E1F060E070E075
:100D700080EC9FE73DC085518230C0F71A81612F1A
:100D800070E0762F662766277F778B81682B90E04F
:100D900080E00E94E9252DEC3CEC4CEC5DE30E94E8
:100DA0004A2648C06A8170E090E080E00E94E92510
:100DB0006B017C01CB81C7FF0AC0AC019B0160E0E5
:100DC00070E080E89FEB0E94A2276B017C01CF704E
:100DD0006C2F70E090E080E00E94EB252DEC3CEC65
:100DE0004CEC5DE30E944A26A70196010E94A327CE
:100DF000DF91CF911F91FF90EF90DF90CF900895FA
:100E00001A81612F70E090E080E00E94E9256B017B
:100E10007C016B816F7070E090E080E00E94EB25B8
:100E20002DEC3CEC4CEC5DE30E944A26A7019601B8
:100E30000E94A32717FFDCCF9058DACFCF92DF9222
:100E4000EF92FF92CF93DF93EC010E949F058823DE
:100E500041F08E818B3028F08D3040F0855182300A
:100E600030F160E070E080EC9FE71AC0698170E0CB
:100E700090E080E00E94EB252DEC3CEC4CEC5DE337
:100E80000E944A266B017C01688170E090E080E05E
:100E90000E94EB259B01AC01C701B6010E94A3276C
:100EA000DF91CF91FF90EF90DF90CF900895688110
:100EB000798176276727762790E080E00E94E925F0
:100EC0002DEC3CEC4CEC5DE30E944A26E9CFEF921E
:100ED000FF920F931F93CF93DF93EC018B017A0165
:100EE0000E944B02688B798B8A8B9B8B8C819D81B6
:100EF000DC01ED91FC910280F381E02DA701B801A6
:100F0000DF91CF911F910F91FF90EF9009941F9364
:100F1000CF93DF93EC01162F0E944B02688B798BE5
:100F20008A8B9B8B8C819D81DC01ED91FC910190E2
:100F3000F081E02D612FDF91CF911F910994FC0189
:100F400020812EBD9B012150310941F051810DB40A
:100F500007FEFDCF4EB55EBD4193F5CF61507109DF
:100F6000860F971F0DB407FEFDCF2EB5FC01208321
:100F70000895E0918303F09184038081909182032E
:100F8000892B80830895E0918303F09184039081FD
:100F90008091820380958923808308958EBD00000F
:100FA0000DB407FEFDCF8EB50895AF92BF92CF92DC
:100FB000DF92EF92FF920F931F93CF93DF93CDB702
:100FC000DEB728970FB6F894DEBF0FBECDBF8C01F9
:100FD0007B016A018091DC038333E1F45801A40EA4
:100FE000B51EA016B10609F46FC00E94C30780EFBA
:100FF0000E94CE07812F0E94CE07802F0E94CE072D
:101000000F5F1F4FF70181917F010E94CE070E9461
:10101000B907E7CF5B01A40EB51E8433C1F40E946B
:10102000C30719830A838D2D80688B83CC8264E08B
:1010300070E0CE0101960E949F07AE14BF0409F430
:1010400041C0F70181917F010E94CE07F6CF0E9437
:10105000C3070F3F110509F028F419820A8384E0C1
:101060008B830CC017FD17C019820A8333E01695D5
:1010700007953A95E1F7007E0C600B8386E0C81671
:10108000D104A0F5F701DE011496EA15FB0599F0ED
:1010900081918D93FACFC80126E0969587952A9580
:1010A000E1F7807E19830A830115104C10F48461E6
:1010B000D7CF8C61D5CFB6016D5F7F4FCE01019642
:1010C0000E949F070E94B907C60128960FB6F894A0
:1010D000DEBF0FBECDBFDF91CF911F910F91FF906B
:1010E000EF90DF90CF90BF90AF90089563E070E0F5
:1010F000CE0101960E949F07F70181917F010E9416
:10110000CE07AE14BF04C1F7DDCFCF93DF931F929C
:10111000CDB7DEB7898341E050E0BE016F5F7F4FFE
:1011200090E080E00E94D5070F90DF91CF91089565
:1011300090E02091DC03233339F40C96982F990F1B
:10114000990F990F80E008954896F8CFDA01E09161
:101150008603F0E0FE2FEE27E60FF71F90E0982FB2
:101160008827A901BD018E0F9F1F0C94D507CF932F
:10117000DF9300D0CDB7DEB779836A8322E030E019
:10118000AE014F5F5F4F60E170E00E94A6080F90D4
:101190000F90DF91CF910895CF93DF9300D0CDB71B
:1011A000DEB779836A8322E030E0AE014F5F5F4FA4
:1011B00064E070E00E94A6080F900F90DF91CF913D
:1011C0000895CF93DF931F92CDB7DEB720918603AA
:1011D00030E0322F2227260F371F90E0982F8827E4
:1011E000498341E050E0BE016F5F7F4F820F931F44
:1011F0000E94D5070F90DF91CF910895CF93DF9391
:101200001F92CDB7DEB76983DC01ED91FC910280BE
:10121000F381E02D41E050E0BE016F5F7F4F099503
:101220000F90DF91CF9108950895FC019485FB0103
:101230008485981303C081E0943008F080E008951D
:10124000CF93DF931F92CDB7DEB76983DC01ED91B9
:10125000FC910280F381E02D41E050E0BE016F5F20
:101260007F4F09950F90DF91CF9108950895FF92D8
:101270000F931F93CF93DF93EB01FC01178A168A1C
:101280002A81211109C02B81211106C02C81211135
:1012900003C02D81222301F141155105E9F08A0196
:1012A000FC01F08C80E591E00E946401AE014E5F8C
:1012B0005F4F24E030E06CE070E08F2D0E94A608C4
:1012C000B8018F2D0E94B70881E090E0DF91CF91A7
:1012D0001F910F91FF90089580E0F7CFFC01848566
:1012E00095850895FC0184899589089522EA31E065
:1012F000FC0131832083FB01408951896289738914
:10130000FC0142835383648375830895DC01ED916E
:10131000FC91048CF58DE02D099490E080E0089517
:10132000FC01768765870895DC01ED91FC9102A0B0
:10133000F3A1E02D099591E089270895862F08955E
:1013400081E08627089521E0FC018485843008F03F
:1013500020E0822F08950895CF92DF92EF92FF92BE
:101360000F931F93CF93DF937C01EB016091BF0438
:101370007091C004CE010E9461238C010E942C0157
:10138000882309F440C0C090BF04D090C004B601C7
:10139000C7010E9461239801295F3F4F820F931F6D
:1013A000C816D90680F16091BD047091BE0445E075
:1013B00050E0C7010E940A017E01E00EF11EFE010D
:1013C000EC01CE1BDF0BAE014E0F5F1F6091BD0421
:1013D0007091BE04EE15FF0531F02191640F751F69
:1013E000DB012C93F0CF05501109A801480F591FBC
:1013F00080E3DF91CF911F910F91FF90EF90DF90ED
:10140000CF900C94570280E0DF91CF911F910F9104
:10141000FF90EF90DF90CF9008950F931F93CF939D
:10142000DF93EC010091BF041091C004B8010E9449
:101430006123099608171907E8F10E942C018823F7
:10144000C9F18091C5049091C604019681F19093F1
:10145000C6048093C504E091BD04F091BE04809160
:10146000C6048583E091BD04F091BE048091C5045B
:1014700086836091BD047091BE0447E050E0CE01C8
:101480000E940A01E091BD04F091BE04E80FF91F2B
:101490001082AC01445051096091BD047091BE04AA
:1014A00082E8DF91CF911F910F910C94570281E058
:1014B00090E0CDCF80E0DF91CF911F910F91089503
:1014C0004F925F926F927F928F929F92AF92BF9254
:1014D000CF92DF92EF92FF92CF93DF93CDB7DEB73B
:1014E00028970FB6F894DEBF0FBECDBF49015A0151
:1014F00026E636E646EE5FE30E944A2620E030E02C
:1015000040E052E40E94A3276B017C0120E030E020
:1015100048E852E40E94A2272AE939E949E95FE351
:101520000E944A262B013C0120E030E044E752E4CF
:10153000C701B6010E94A3279B01AC01C301B20100
:101540000E94A3272B013C0122E133E840EC5DE33C
:10155000C501B4010E944A269B01AC01C301B2013E
:101560000E94A32720E030E040E05FE30E944A268B
:101570002B013C0120E030E04EE952E40E940F28AC
:1015800018160CF023C1A7019601C701B6010E94ED
:101590004A262B013C01A5019401C501B4010E941A
:1015A0004A266D837E838F83988721E133E243E06F
:1015B00050E4C701B6010E944A2629E134E849E215
:1015C00052E40E94A22769837A838B839C8326E15D
:1015D0003BE442E251E4C501B4010E944A269B016A
:1015E000AC0169817A818B819C810E94A3276983E8
:1015F0007A838B839C8328E436E246E65EEBC70160
:10160000B6010E944A26A50194010E944A269B0128
:10161000AC0169817A818B819C810E94A3276983B7
:101620007A838B839C8320EE3FE040EE5BEBC3012B
:10163000B2010E944A269B01AC0169817A818B81AB
:101640009C810E94A32769837A838B839C8328EFE4
:1016500037E840E65DEB6D817E818F8198850E9441
:101660004A269B01AC0169817A818B819C810E9411
:10167000A32769837A838B839C832CEA3DE041EA2C
:101680005AE3C301B2010E944A26A50194010E94B7
:101690004A269B01AC0169817A818B819C810E94E1
:1016A000A32769837A838B839C8328EC3FE84FE5EB
:1016B0005AE3C701B6010E944A262D813E814F811F
:1016C00058850E944A269B01AC0169817A818B81F1
:1016D0009C810E94A32769837A838B839C8321EF5B
:1016E0003BE845E056EBC301B2010E944A262D813A
:1016F0003E814F8158850E944A269B01AC01698139
:101700007A818B819C810E94A3272B013C0120E0E0
:1017100030E040E551E4C501B4010E94E42587FFB3
:1017200081C020E030E040EA52E4C701B6010E94E7
:101730000F2887FD77C020E030E040EE52E4C7017B
:10174000B6010E94E42518160CF4B6C0A501940158
:1017500060E070E080E591E40E94A22720E030E0A4
:1017600040E85EE30E944A264B015C0120E030E045
:101770004EEB52E4C701B6010E94A2276B017C0127
:1017800020E030E0A9010E940F2818160CF041C09B
:10179000A701960160E070E088E891E40E94A2272A
:1017A0002EE33DEE40E75DE30E944A260E941A28A0
:1017B0009B01AC01C501B4010E944A269B01AC010A
:1017C000C301B2010E94A2272B013C0120E030E0BE
:1017D00040E052E4C301B2010E94A22726E838E3A8
:1017E0004EE05FE30E944A2628960FB6F894DEBFCB
:1017F0000FBECDBFDF91CF91FF90EF90DF90CF90E4
:10180000BF90AF909F908F907F906F905F904F9020
:10181000089520E030E048E851E4C701B6010E9495
:10182000A327BECF20E030E04AEA52E4C501B4016C
:101830000E940F28181654F620E030E040EA52E4E7
:10184000C701B6010E940F2887FDC0CF20E030E01D
:101850004EEA52E4C701B6010E94E42518160CF4C2
:10186000B5CF20E030E04AEA52E4C501B4010E945D
:10187000A2272DEC3CEC4CEC5DE30E944A264B0188
:101880005C01A701960160E070E08EEA92E40E949C
:10189000A2272DEC3CEC4CE45EE30E944A269B011F
:1018A000AC01C501B4010E944A269B01AC01C301F1
:1018B000B2010E94A32788CF20E030E04AEA52E438
:1018C000C501B4010E940F2818160CF4BFCF7ECFBB
:1018D0000C941129FB0101900020E9F73197AF0129
:1018E000461B570BDC01ED91FC910280F381E02D4A
:1018F00009948F929F92AF92BF92EF92FF920F93B3
:101900001F93CF93DF93CDB7DEB7A1970FB6F894AF
:10191000DEBF0FBECDBF7C01FA01CB0119A2223080
:1019200008F42AE08E010F5D1F4F822E912CB12CFE
:10193000A12CBF01A50194010E947127F901CA01E0
:101940006A300CF5605DD8016E938D01232B242B3A
:10195000252B79F790E080E0109721F0BD01C701B9
:101960000E946A0CA1960FB6F894DEBF0FBECDBFE1
:10197000DF91CF911F910F91FF90EF90BF90AF90AB
:101980009F908F900895695CDECF8F929F92AF9267
:10199000BF92CF92DF92EF92FF920F931F93CF935C
:1019A000DF937C01EB016C0182E0C80ED11C470182
:1019B000E5E08E0E911C10E000E0F60141916F0110
:1019C00050E070E060E02AE0CE010E94790C5C01FA
:1019D000E881F9810190F081E02D6EE2CE01099558
:1019E0008A0D9B1D080F191FC814D90431F7F70180
:1019F000458150E070E060E02AE0CE010E94790C61
:101A0000800F911FDF91CF911F910F91FF90EF9069
:101A1000DF90CF90BF90AF909F908F900895CF931D
:101A2000DF93BC018EED93E00E946A0CEC0164EA46
:101A300071E08EED93E00E946A0C8C0F9D1FDF9188
:101A4000CF9108950F931F93CF93DF938C01EB01F8
:101A500067EA71E08EED93E00E946A0C61EB71E041
:101A6000C8010E94792A892B29F58881813381F464
:101A700061E087E00E946C016DED71E086EC91E021
:101A80000E94AC0964ED71E08EED93E00E946A0C57
:101A90008881803309F056C060E087E00E946C01C5
:101AA0006CEE71E086EC91E0DF91CF911F910F9188
:101AB0000C94AC096CEF71E0C8010E94792A892B63
:101AC000E9F48881813381F461E086E00E946C0151
:101AD0006AE172E086EC91E00E94AC0961E172E09B
:101AE0008EED93E00E946A0C8881803359F560E0A6
:101AF00086E00E946C0169E272E0D4CF69E372E093
:101B0000C8010E94792A892BE9F48881813381F404
:101B100061E085E00E946C0167E572E086EC91E08F
:101B20000E94AC096EE472E08EED93E00E946A0CB4
:101B30008881803339F460E085E00E946C0166E6BC
:101B400072E0B0CFDF91CF911F910F9108950F9365
:101B50001F93CF93DF93EC0188819981009759F00F
:101B60002A813B812617370730F081E0DF91CF9142
:101B70001F910F9108958B016F5F7F4F0E949A29EB
:101B8000009759F0998388831B830A832C813D81B8
:101B9000232B59F7FC011082E8CF80E0E7CFAF920A
:101BA000BF92CF92DF92EF92FF920F931F93CF934A
:101BB000DF9300D000D0CDB7DEB78C016B017A0186
:101BC0008091DC038333E9F45B016801C40ED51E08
:101BD000C016D106A9F10E94C3078FE00E94CE076C
:101BE000812F0E94CE07802F0E94CE070F5F1F4FCC
:101BF00080E00E94CE07F50181935F010E94B90742
:101C0000E7CF843369F50E94C30719830A838F2DB8
:101C10008F778B83EC8264E070E0CE0101960E94A6
:101C20009F07A70170E060E0C6010E94722AE114DC
:101C3000F10421F0B701C6010E949F070E94B90775
:101C4000C7010F900F900F900F90DF91CF911F91D0
:101C50000F91FF90EF90DF90CF90BF90AF900895DD
:101C60000E94C3070F3F110509F030F419820A835F
:101C70001B8263E070E0D1CF17FD0BC019820A838D
:101C800033E0169507953A95E1F7007E08600B83DF
:101C9000F0CFC80126E0969587952A95E1F7807EDA
:101CA00019830A830115104C18F480618B83E1CFEE
:101CB0008861FCCF1F93CF93DF931F92CDB7DEB720
:101CC000182F80E591E00E946401812F0E949808FE
:101CD00027E0129FF0011124E054FC4F2281338150
:101CE000377041E050E0BE016F5F7F4F820F931F5E
:101CF0000E94CF0D89810F90DF91CF911F910895A0
:101D0000FC01808D843040F4218D328D232B21F015
:101D10000E945A0E90E008958FEF9FEF0895CF93A1
:101D2000DF93FC012485243028F08FEF9FEFDF91B3
:101D3000CF910895EC010190F081E02D0084F185B0
:101D4000E02D0995892B89F38C850E945A0E90E02D
:101D5000EECFCF93DF931F92CDB7DEB741E050E0D7
:101D6000BE016F5F7F4F0E94CF0D89810F90DF9181
:101D7000CF91089590E080E00C94A90ECF93DF936B
:101D8000C4E1D0E00E94BA0E882361F061E070E007
:101D900080E090E00E9419022197A1F780E0DF9196
:101DA000CF91089581E0FBCFDF92EF92FF920F93E6
:101DB0001F93CF93DF9300D0CDB7DEB760E372E01F
:101DC00080E090E00E941902DFB6F8940EE911E07D
:101DD00032EBE32E31E0F32E80918503811125C093
:101DE000F8018491F7019491E82FF0E0EE0FFF1FC6
:101DF000E459FE4FA591B4918C91982321F461E0B0
:101E00008AE00E946C0161E08AE00E94B8018CB512
:101E100080618CBD8CB580648CBD61E08DE00E94DA
:101E2000B80161E08BE00E94B801809185038F5F6B
:101E300080938503DFBEF8010491E02FF0E0EE0F00
:101E4000FF1FEA58FE4F85919491909384038093ED
:101E50008303F701E490E092820361E08AE00E944C
:101E6000B8010E94B90780E591E00E94640184E313
:101E70008093DC0380E80E9485080E94BE0E8823C0
:101E800009F441C088E00E9485080E94BA0E88309B
:101E9000D1F580E10E9485080E94BA0E803199F543
:101EA00080E00E9485080E94BA0E182F81112BC075
:101EB0008FE190E00E94A90E833029F580E48093A1
:101EC000860342E06EE170E0812F0E94E10842E06B
:101ED0006FE170E0812F0E94E1081F5F143089F7E5
:101EE00040E06EE170E0812F0E94E10840E06FE188
:101EF00070E0812F0E94E1081F5F183089F781E0B0
:101F00008093DD0364C087E38093DC0380E80E9454
:101F100085080E94BE0E8823F9F088E00E9485089B
:101F20000E94BA0E8830C1F480E10E9485080E94A8
:101F3000BA0E182F803181F480E00E9485080E943B
:101F4000BA0E811109C089E390E00E94A90E843085
:101F500019F410938603D3CF83E38093DC0380E8E6
:101F60000E9485080E94BE0E882371F180E10E94C4
:101F700085080E94BA0E803139F582E10E948508F9
:101F80000E94BA0E823101F580E00E9485080E940D
:101F9000BA0E811119C084E08093860315E51A8377
:101FA00041E050E0BE016E5F7F4F8BE190E00E9408
:101FB000D507198341E050E0BE016F5F7F4F8AE192
:101FC00090E00E94D5079BCF1092DC0380E00F9039
:101FD0000F90DF91CF911F910F91FF90EF90DF90C5
:101FE0000895CF92DF92EF92FF92CF93DF93CDB718
:101FF000DEB7C254D1090FB6F894DEBF0FBECDBF15
:10200000FC01428153816481758123964CAF5DAFA1
:102010006EAF7FAF239781E023968FAF23972396F0
:10202000CCACDDACEEACFFAC2397CBAADCAAEDAA1E
:10203000FEAA4DA75EA76FA778AB88ABCDA4DEA4A0
:10204000EFA4F8A8CFA2D8A6E9A6FAA68EABCBA893
:10205000DCA8EDA8FEA8C9A2DAA2EBA2FCA222EAA3
:1020600031E03C8B2B8B9FEF9D8B9E8B9F8B188E33
:102070003E872D878AA7CFA0D8A4E9A4FAA4CF864B
:10208000D88AE98AFA8A8CA389A19AA1ABA1BCA1BA
:1020900089879A87AB87BC873A8329834B835C8384
:1020A0006D837E838091DD03882309F443C080E53E
:1020B00091E00E94640146E050E062E071E089E056
:1020C00090E00E94D50744E050E0BE016D5F7F4F75
:1020D0008FE090E00E94D50744E050E0BE01615FD0
:1020E0007F4F81E090E00E94D50744E050E0BE01C0
:1020F0006B5E7F4F85E090E00E94D50781E08C8782
:1021000089859A85AB85BC858093A1049093A204B0
:10211000A093A304B093A404CE5BDF4F0FB6F89452
:10212000DEBF0FBECDBFDF91CF91FF90EF90DF906C
:10213000CF9008950E94D40E882371F3B8CF2091D8
:10214000860330E0322F2227620F731F90E0982F12
:102150008827860F971F0C94A90ECF93C82F462F60
:1021600061E070E00E94E10861E070E08C2F0E9465
:102170009F108111F9CFCF910895CF93C82F80E59B
:1021800091E00E94640168E070E08C2FCF910C9484
:10219000AD10CF93C82F80E591E00E94640160E10B
:1021A00070E08C2FCF910C94AD10CF93DF93EC01A6
:1021B000888D843020F40E94C91084E0888FDF91DC
:1021C000CF910895CF93C82F80E591E00E946401DC
:1021D00063E070E08C2FCF910C949F10CF93DF932E
:1021E000EC018C858430D0F40E94E210843189F0B7
:1021F000882379F0883169F021E08C3159F4E88145
:10220000F9810084F185E02DCE01099521E0892B2B
:1022100009F420E0822FDF91CF91089580E0FBCF79
:10222000CF92DF92EF92FF92CF93DF93EC018C85F8
:10223000843068F40E94BD100E944B026B017C0147
:102240008C850E94E210811109C084E08C87DF91A7
:10225000CF91FF90EF90DF90CF90089561E070E014
:1022600080E090E00E9419020E944B02AB01BC0189
:102270004C195D096E097F098D859E85B0E0A0E04F
:10228000481759076A077B07D8F28C850E94C91046
:10229000DCCFCF93FC01C08D80E591E00E9464010A
:1022A00060E270E08C2F0E94AD1062E070E08C2F35
:1022B0000E949F1084FD16C062E070E08C2F0E9487
:1022C0009F1083FF0AC048E162E070E08C2F0E94FB
:1022D000E10880E090E0CF91089580E591E00E94D0
:1022E0006401E3CF40E162E070E08C2F0E94E108DE
:1022F00081E0F0CFDA01E0918603F0E0FE2FEE27D7
:10230000E60FF71F90E0982F8827A901BD018E0FD7
:102310009F1F0C94CF0D8F929F92AF92BF92CF923E
:10232000DF92EF92FF921F93CF93DF93CDB7DEB78B
:102330002C970FB6F894DEBF0FBECDBF2091DC0303
:1023400014E0222339F16B017C0180E591E00E94C9
:1023500064015E0127E0A20EB11C450110E063E0BC
:1023600070E0812F0E949F10F40181934F01882318
:1023700049F11F5F143099F710E0F50181915F0179
:102380008D31D9F08831C9F08A518230B0F01F5FA9
:10239000143099F7812F2C960FB6F894DEBF0FBE3C
:1023A000CDBFDF91CF911F91FF90EF90DF90CF9045
:1023B000BF90AF909F908F90089560E170E0812F63
:1023C0000E94AD10A12EB12C83EE93E00197F1F79E
:1023D00042E870E060E0812F0E94E1084FEF62E088
:1023E00070E0812F0E94E108B601C114D10491F47C
:1023F000809100019091010101968115F0EC9F07F9
:1024000008F45CC090930101809300016091000189
:1024100070910101812F0E94CC0886E0E2E1F1E099
:10242000DE01119601900D928A95E1F7F701838103
:102430008F778C8384818D8385818E83A7014E5F06
:102440005F4F24E030E06CE070E0812F0E94A6082E
:10245000B601812F0E94B70826E030E0AE014F5F41
:102460005F4F66E070E0812F0E94A60861E070E097
:10247000812F0E94AD1027E02A9DC0012B9D900D59
:1024800011249C0120543C4F7901F90111821082E2
:1024900022E030E0AE01455F5F4F68E270E0812FDF
:1024A0000E947A118B859C85982789279827F701A8
:1024B000938382831682158214826CCF80E090EC25
:1024C000A1CFCF92DF92EF92FF920F931F93CF9302
:1024D000DF9300D000D000D0CDB7DEB78C016B0108
:1024E0007A01FC01808D843010F40E94C91082EAC8
:1024F00091E09A838983F60182819381A481B581D9
:102500008B839C83AD83BE83B701CE0101960E946D
:102510008B11F801808F8430A0F4F586E486128E4A
:10252000118E81E026960FB6F894DEBF0FBECDBFA8
:10253000DF91CF911F910F91FF90EF90DF90CF909F
:10254000089580E0EFCFAF92BF92CF92DF92EF92EB
:10255000FF920F931F93CF93DF9300D000D000D052
:10256000CDB7DEB7082F6B0180E591E00E946401D2
:102570009E012F5F3F4F7901590110E063E070E049
:10258000812F0E949F10F50181935F01882341F103
:102590001F5F143099F710E0F70181917F018D31B1
:1025A000D1F08831C1F08A518230A8F01F5F143019
:1025B00099F7812F26960FB6F894DEBF0FBECDBFD8
:1025C000DF91CF911F910F91FF90EF90DF90CF900F
:1025D000BF90AF90089560E170E0812F0E94AD1030
:1025E000E12EF12C83EE93E00197F1F7402F70E09C
:1025F00060E0812F0E94E1084FEF62E070E0812FE0
:102600000E94E108B601CD2889F4809100019091E3
:10261000010101968115F0EC9F0798F1909301015B
:10262000809300016091000170910101812F0E944F
:10263000CC0861E070E0812F0E94AD1027E02E9D54
:10264000C0012F9D900D11249C0120543C4F790115
:10265000F9011182108222E030E0AE014B5F5F4F42
:1026600068E270E0812F0E947A118D819E81982707
:1026700089279827F7019383828316821582148213
:1026800098CF80E090ECCACFCF92DF92EF92FF928A
:102690001F93CF93DF93EC017B016A018C8584301B
:1026A00048F40E94E210882319F08C850E94BD1026
:1026B00084E08C87F70182819381A481B5810097A2
:1026C000A105B10551F490E080E0DF91CF911F9119
:1026D000FF90EF90DF90CF9008958F3F9F4FAF4FC7
:1026E000BF4F89F38091DC03811103C084E08C87A4
:1026F000EACF70E060E081E20E94A312182F8C877D
:10270000843008F780E591E00E946401A7014E5FE4
:102710005F4F24E030E06CE070E0812F0E94A6085B
:10272000B601812F0E94B70864E070E0812F0E94FB
:10273000AD100E944B026B017C018C850E94E2105F
:10274000873109F18C31F9F0882309F4BCCF0E945C
:102750004B02AB01BC014C195D096E097F098D85E7
:102760009E85B0E0A0E084179507A607B70738F06C
:1027700061E070E080E090E00E941902DECF8C857D
:102780000E94C910B3CF81E090E09FCF0F931F93B9
:10279000CF93DF93EC018B01888D843010F40E947D
:1027A000C9108091DC03811107C094E0988FDF91FC
:1027B000CF911F910F910895B80182E00E94A3125A
:1027C000888F843030F41D870C871A8E198E81E033
:1027D000EECF80E0ECCF7F928F929F92AF92BF922C
:1027E000CF92DF92EF92FF920F931F93CF93DF93DD
:1027F00000D0CDB7DEB7782E8B014A01590122E017
:1028000030E0AE014F5F5F4F64E270E00E947A11EA
:10281000E980FA80FE24EF24FE24E00EF11E9701E9
:1028200037704091DC03072D10E0433309F042C0BC
:10283000085F1F4F102F0027110F110F110FC90133
:10284000800F911F4733C9F1A9014A0D5B1D41302B
:10285000584098F160E078E06B01C21AD30AA601F3
:10286000B4010E94D507A5014C195D09B4016C0D96
:102870007D1DC8010E94D507EA0CFB1CF982EA8283
:1028800022E030E0AE014F5F5F4F64E270E0872DE1
:102890000E94A6080F900F90DF91CF911F910F918A
:1028A000FF90EF90DF90CF90BF90AF909F908F9070
:1028B0007F900895005F1F4FBDCFA501B401DACF0F
:1028C000EF92FF921F93CF93DF9300D0CDB7DEB787
:1028D000182F22E030E0AE014F5F5F4F60E270E002
:1028E0000E947A11E980FA80FE24EF24FE2422E07F
:1028F00030E0AE014F5F5F4F60E270E0812F0E94D9
:102900007A1189819A81982789279827E816F906EC
:1029100089F487E0189FF0011124E054FC4FF58200
:10292000E482C7010F900F90DF91CF911F91FF902C
:10293000EF9008957C01DBCF1F93CF93DF93182F87
:1029400080E591E00E946401812F0E946014EC01F7
:1029500063E070E0812F0E949F10873121F08C315D
:1029600011F0D0E0C0E0CE01DF91CF911F9108952A
:10297000CF93DF93EC018C85843060F40E94E210E9
:10298000873111F08C3131F48C850E949C148115B3
:10299000984088F3DF91CF910895FC0184858430BD
:1029A00010F40C949C1490E080E008959F92AF92F4
:1029B000BF92CF92DF92EF92FF920F931F93CF932C
:1029C000DF938C015B01942EE52EFC01C688D7882D
:1029D000F08C80E591E00E9464018F2D0E946014CC
:1029E000C92DDE2D8C179D0708F4EC019E01A50171
:1029F000B6018F2D0E94EB13F801868997898C0F01
:102A00009D1F978B868BCE01DF91CF911F910F91E8
:102A1000FF90EF90DF90CF90BF90AF909F90089580
:102A20008F929F92AF92BF92CF92DF92EF92FF92DE
:102A30000F931F93CF936C015B018A01FC01C48546
:102A4000C430F0F57A014130584018F0E12C88E0AC
:102A5000F82E80E591E00E9464018C2F0E946014A2
:102A60004C0163E070E08C2F0E949F10873111F0C1
:102A70008C3149F58E149F0460F380E591E00E944B
:102A800064019701A50170E060E08C2F0E94EB13B8
:102A900060E270E08C2F0E94AD1062E070E08C2F3D
:102AA0000E949F1084FD17C063E070E08C2F0E948D
:102AB0009F1081110BC081E090E0F6019383828327
:102AC00010E000E010C0F12CE12CD7CF80E591E0C0
:102AD0000E946401E2CF40E162E070E08C2F0E942E
:102AE000E108EF2841F3C801CF911F910F91FF90AA
:102AF000EF90DF90CF90BF90AF909F908F90089510
:102B0000FF920F931F93CF93DF9300D0CDB7DEB723
:102B1000F82E22E030E0AE014F5F5F4F66E270E0DA
:102B20000E947A1109811A8110270127102722E0BB
:102B300030E0AE014F5F5F4F66E270E08F2D0E9484
:102B40007A1189819A819827892798270817190768
:102B500049F4C8010F900F90DF91CF911F910F9111
:102B6000FF9008958C01E3CF1F93CF93DF93182F2D
:102B700087E0189FE0011124C054DC4F88819981BF
:102B8000009761F480E591E00E946401812F0E942A
:102B900080152E81821B910999838883DF91CF91C3
:102BA0001F910895FC018485843010F40C94B415B1
:102BB00090E080E008954F925F927F928F929F9273
:102BC000AF92BF92CF92DF92EF92FF920F931F933B
:102BD000CF93DF9300D0CDB7DEB7782E6B014A01DB
:102BE000A82EB12C27E0829FC0011124FC01E054E3
:102BF000FC4F7F010081118180E591E00E9464011A
:102C00000815190554F4872D0E948015F7012681B7
:102C10008C01021B1109118300830115110529F58F
:102C200063E070E0872D0E949F10843159F0882363
:102C300049F001E010E08C3111F410E000E0119552
:102C400001951109C8010F900F90DF91CF911F914D
:102C50000F91FF90EF90DF90CF90BF90AF909F903B
:102C60008F907F905F904F900895801691060CF49E
:102C7000840187E08A9DF0018B9DF00D1124E054C2
:102C8000FC4FE280F380C114D10451F12701F7E039
:102C90005F22872D0E949808840D951D2091DC03EA
:102CA000273309F453C09801240D351D21303840D5
:102CB00008F44CC020E038E0490184189508A401CC
:102CC000B6010E94CF0D2601480C591C6801C81896
:102CD000D908872D0E949808A601B2010E94CF0D45
:102CE000E00EF11E87E08A9DF0018B9DF00D11240E
:102CF000E054FC4FF382E28220813181201B310BB2
:102D0000318320838681800F912F911D8A3F910509
:102D100010F4232BF1F487E08A9DF0018B9DF00DD8
:102D20001124E054FC4F1682F982EA8222E030E05E
:102D3000AE014F5F5F4F68E270E0872D0E94A608EA
:102D400060E470E0872D0E94AD107CCFA801B60131
:102D5000C5CF868377CFCF93DF93FC01218D328D52
:102D60002115310529F48FEF9FEFDF91CF91089561
:102D7000EC01808D4217530708F0A9010E94DB1572
:102D80001816190684F7298D3A8D281B390B3A8FAE
:102D9000298FEBCF0F931F93CF93DF931F92CDB764
:102DA000DEB7FC01218D328D232B41F48FEF9FEF95
:102DB0000F90DF91CF911F910F9108958C0141E009
:102DC00050E0BE016F5F7F4FFC01808D0E94DB15DC
:102DD000181619065CF7F801818D928D0197928F74
:102DE000818F898190E0E4CFCF93DF931F92CDB79D
:102DF000DEB741E050E0BE016F5F7F4FFC0184858C
:102E00000E94DB151816190634F4898190E00F90A2
:102E1000DF91CF9108958FEF9FEFF9CFFC0184856B
:102E2000843010F40C94DB1590E080E008950F934B
:102E30001F93CF93DF9300D0CDB7DEB7FC0124857D
:102E40002430E0F48C0180E591E00E94640122E0EE
:102E500030E0AE014F5F5F4F60E170E0F8018485C4
:102E60000E947A1189819A819827892798270F9043
:102E70000F90DF91CF911F910F91089590E080E026
:102E8000F6CF0F931F93CF93DF9300D0CDB7DEB76C
:102E9000FC0124852430E0F48C0180E591E00E945F
:102EA000640122E030E0AE014F5F5F4F64E070E00C
:102EB000F80184850E947A1189819A81982789274F
:102EC00098270F900F90DF91CF911F910F91089548
:102ED00090E080E0F6CF0F931F93CF93DF93CDB7B1
:102EE000DEB728970FB6F894DEBF0FBECDBF8C01BA
:102EF000D80159964D915C915A974115510551F061
:102F0000ED91FC91048CF58DE02D70E060E0C8013E
:102F10000995EECFF801808D0E94B415892BB1F18F
:102F200048E050E0BE016F5F7F4FD80158968C910A
:102F30000E94DB1518161906F4F4D801509684E0A7
:102F4000FE01319601900D928A95E1F78D8190E016
:102F5000982F88272E81820F911DF801958B848BE5
:102F60008F81282F30E0322F22278885820F932FE0
:102F7000911D928F818F28960FB6F894DEBF0FBEF9
:102F8000CDBFDF91CF911F910F91089590E080E028
:102F9000F2CF4F925F926F927F928F929F92AF92F9
:102FA000BF92CF92DF92EF92FF920F931F93CF9336
:102FB000DF93CDB7DEB763970FB6F894DEBF0FBED1
:102FC000CDBF7C016B013A01FB0120E090E080E085
:102FD0006AE03191332309F461C040ED430F4A3078
:102FE00008F04DC0689FA001699F500D1124CA01CF
:102FF000C097830F911D37FD9A958F3F910549F337
:1030000040F3F70142815381648175818091AD0461
:103010009091AE04A091AF04B091B0044817590745
:103020006A077B0709F40DC28701085F1F4F0E94E2
:103030004B026F7077277C5FC8010E94C6138130F6
:1030400009F004C282EA91E09A838983F7018281C0
:103050009381A481B5818B839C83AD83BE8345E33B
:1030600050E0BE016F5F7F4FC8010E943709892B76
:10307000A9F5D12CC12CC8010E94D51017C03E3231
:1030800009F0BFCF233009F4BCCFD301A20FB11D8B
:1030900012968C932F5F90E080E09BCF233009F055
:1030A000B0CFF3018583CC24C394D12CC6016396A1
:1030B0000FB6F894DEBF0FBECDBFDF91CF911F9149
:1030C0000F91FF90EF90DF90CF90BF90AF909F90C7
:1030D0008F907F906F905F904F9008950E944B0269
:1030E000F7017783668342E050E0B7016A5F7F4F64
:1030F000C8010E94D61481E090E09A83898342E05F
:1031000050E0BE016F5F7F4FC8010E94D61480E07F
:1031100091E09A83898342E050E0BE016F5F7F4F68
:10312000C8010E94D6141A82198242E050E0BE0102
:103130006F5F7F4FC8010E94D61442E050E0BE018D
:103140006F5F7F4FC8010E94D61442E050E0BE017D
:103150006F5F7F4FC8010E94D6145601F60180812F
:10316000882301F16501F60181912F01882311F077
:103170008E32B1F446018A189B081814190474F4AD
:103180008D8641E050E0BE01635F7F4FC8010E9421
:10319000D614A401B501C8010E94D6145201DECF95
:1031A0006201E1CF1D8641E050E0BE01635F7F4FC9
:1031B000C8010E94D614C12CDD24D394DA82C982BE
:1031C00042E050E0BE016F5F7F4FC8010E94D614FD
:1031D000DA82C98242E050E0BE016F5F7F4FC801D2
:1031E0000E94D614C8010E944911892B09F441CFCD
:1031F000F3E0AF2EB12C230122E0420E511CD4C0CB
:10320000F7014281538164817581808D918DA28DFA
:10321000B38D481759076A077B0709F008C1848DE9
:10322000958DC59709F003C181A192A15DEFC52ECF
:10323000DD24DA940C970CF4ADC04CE050E0BE01F4
:103240006F5F7F4FC8010E94AB168B819C819827CE
:10325000892798279A8B898BF70146815781298185
:103260003A814217530709F0E7C097FFE5C08F7016
:1032700092703BEFC32EDD24DA94892B09F08AC0CB
:103280006F8078847624672476242AEFC22EDD248A
:10329000DA946114710409F47DC0D12CC12C8D81A4
:1032A0009E81982789279827C816D906F8F441E007
:1032B00050E0BE01635F7F4FC8010E94AB164D8591
:1032C000442331F050E070E060E0C8010E94AB168A
:1032D0008D858111ECCF44E050E070E060E0C801E2
:1032E0000E94AB16FFEFCF1ADF0AD9CF912C812CA9
:1032F00041E050E0BE016D5E7F4FC8010E94AB16F9
:103300004B89842F807C09F06CC0442331F050E05D
:1033100070E060E0C8010E94AB168B898111E8CF94
:1033200042E050E0BE01615F7F4FC8010E94AB16D2
:1033300042E050E0BE01635F7F4FC8010E94AB16C0
:1033400044E050E070E060E0C8010E94AB1642E04B
:1033500050E0BE016F5E7F4FC8010E94AB168F85A3
:10336000988949895A898115914009F043C0CD84D3
:10337000DE84DC24CD24DC2481E0C816D104D1F520
:103380004115544009F04AC044E050E0B201C80180
:103390000E94AB1621E0A21AB10809F46CCEFFEF2F
:1033A000CF16DF0609F067CE0E944B023B014C01AD
:1033B000C8010E946B17181619060CF421CF0E9441
:1033C0004B026619770988099909693873418105A3
:1033D000910548F562E370E080E090E00E941902F8
:1033E000E7CF41E050E070E060E0C8010E94AB161A
:1033F0001B8A93CF54274527542770E060E0C8010B
:103400000E94AB16FFEF8F1A9F0A6814790409F027
:103410006FCF96EFC92EDD24DA94BCCFE7EFCE2E26
:10342000DD24DA94B7CFCC24CA94DC2CB3CF6EEF72
:10343000C62EDD24DA94AECF4CEFC42EDD24DA9410
:10344000A9CF8EEFC82EDD24DA9430CED12CC12C3A
:103450002DCECF92DF92EF92FF920F931F93CF93D7
:10346000DF93CDB7DEB7AF970FB6F894DEBF0FBED0
:10347000CDBF7C016A0102EA11E01A8309831C8630
:103480001B8688EE93E0A0E0B0E08D879E87AF8733
:10349000B88B83E291E09A878987188F0F8B198EFA
:1034A0001A8E1B8E1C8E84E089A31BA70AA71CA65C
:1034B0001DA61EA61FA68091A1049091A204A09112
:1034C000A304B091A4048EA39FA3A8A7B9A78B833C
:1034D0009C83AD83BE8318861F82AE01465D5F4F1D
:1034E000CE0101960E94C91781309105B1F4D70130
:1034F000ED91FC910488F589E02D1DA30CA38CA50A
:103500009DA5AEA5BFA58EA39FA3A8A7B9A7A601F9
:10351000BE016C5D7F4FC7010995AF960FB6F89459
:10352000DEBF0FBECDBFDF91CF911F910F91FF90F6
:10353000EF90DF90CF900895CF92DF92EF92FF92BD
:103540000F931F93CF93DF93CDB7DEB7AF970FB62F
:10355000F894DEBF0FBECDBF8C016B017A0182EA09
:1035600091E09A8389831B821C821D821E821C86A5
:103570001B8648EE53E060E070E04D875E876F8702
:10358000788B23E231E03A872987988F8F8B198EC9
:103590001A8E1B8E1C8E24E029A39BA78AA71CA62B
:1035A0001DA61EA61FA6D8011C968C91843060F41F
:1035B0000E94E210882321F0F80184850E94BD104A
:1035C00084E0D8011C968C938091A1049091A20470
:1035D000A091A304B091A4048EA39FA3A8A7B9A708
:1035E0008B839C83AD83BE8318861F82AE01465DAC
:1035F0005F4FB601CE0101960E94C9170097C1F036
:10360000D801ED91FC910684F785E02D82EA91E0E6
:103610009DA38CA38CA59DA5AEA5BFA58EA39FA39E
:10362000A8A7B9A7A701BE016C5D7F4FC801099586
:10363000AF960FB6F894DEBF0FBECDBFDF91CF912E
:103640001F910F91FF90EF90DF90CF900895EF9230
:10365000FF920F931F93CF93DF9300D000D0CDB78D
:10366000DEB78C017B01FB0184858430A8F082EAFF
:1036700091E0F80191838083128213821482158273
:10368000C8010F900F900F900F90DF91CF911F9175
:103690000F91FF90EF90089580E591E00E94640102
:1036A00024E030E0AE014F5F5F4F6CE070E0F70167
:1036B00084850E947A1182EA91E0F80191838083E7
:1036C00089819A81AB81BC8182839383A483B583F2
:1036D000D7CF1F920F920FB60F9211242F933F93C3
:1036E0008F939F93AF93BF938091B8039091B90349
:1036F000A091BA03B091BB033091B70323E0230F2D
:103700002D3758F50196A11DB11D2093B703809365
:10371000B8039093B903A093BA03B093BB0380910D
:10372000BC039091BD03A091BE03B091BF0301966D
:10373000A11DB11D8093BC039093BD03A093BE0354
:10374000B093BF03BF91AF919F918F913F912F9104
:103750000F900FBE0F901F90189526E8230F02962A
:10376000A11DB11DD2CF1F920F920FB60F9211243F
:103770002F933F934F935F936F937F938F939F9379
:10378000AF93BF93EF93FF938EED93E00E94D60427
:10379000FF91EF91BF91AF919F918F917F916F9129
:1037A0005F914F913F912F910F900FBE0F901F90FF
:1037B00018951F920F920FB60F9211242F938F938B
:1037C0009F93EF93FF93E091EE03F091EF038081DD
:1037D000E091F403F091F50382FD1BC0908180918C
:1037E000F7038F5F8F732091F803821741F0E09108
:1037F000F703F0E0E252FC4F958F8093F703FF91BF
:10380000EF919F918F912F910F900FBE0F901F906E
:1038100018958081F4CF0F931F93CF93DF9300D03F
:1038200000D000D0CDB7DEB707EB14E0F80113826B
:10383000128222E531E03183208322EA31E0348FA5
:10384000238F2FEF3FEF30A727A3FC0182819381C5
:10385000A481B581F801858F968FA78FB0A38BE5E2
:1038600097E094A383A312A211A282E29DE0928F1B
:10387000818F80EE94E09583848316A215A280E068
:1038800091E00E947528F8019783868380E091E09B
:10389000918780878FE090E09387828795878487E0
:1038A00026960FB6F894DEBF0FBECDBFDF91CF9145
:1038B0001F910F910895EF92FF920F931F93CF9353
:1038C000DF9300D000D000D0CDB7DEB7EEEDF3E04F
:1038D0001382128248EE53E060E070E04483558327
:1038E000668377838EE591E09183808385EC90E019
:1038F0009587848784EC90E09787868780EC90E0BA
:10390000918B808B81EC90E0938B828B82EC90E0AA
:10391000958B848B86EC90E0978B868B118E128E24
:10392000138E148EEBE7F4E082EA91E091838083BA
:103930001282138214821582E1E8F4E0918380837D
:103940001282138214821582E7E8F4E09183808367
:103950001282138214821582EDE8F4E09183808351
:103960001282138214821582E3E9F4E0918380834A
:103970001282138214821582E9E9F4E09183808334
:103980001282138214821582E5EAF4E09183808327
:103990001282138214821582EFE9F4E0918380830E
:1039A0001282138214821582EBEAF4E09183808301
:1039B0001282138214821582E1EBF4E091838083FA
:1039C0001282138214821582E4E3F5E091838083EE
:1039D0001282138214821582A1E2B5E022E01596CC
:1039E0002C9315972BE0F22E1696FC921697EAEA86
:1039F000F1E0E4911796EC931797E6E9F1E0E49192
:103A00001896EC93189700E81EE320E030E01D962E
:103A10000D931D932D933C935097AEE0B5E0E3E0FA
:103A20001596EC9315971696FC921697EBEAF1E033
:103A3000E4911796EC931797E7E9F1E0E491189673
:103A4000EC9318971D960D931D932D933C935097CF
:103A5000ABEFB4E0E4E0EE2E1596EC9215971696D7
:103A6000FC921697ECEAF1E0E4911796EC93179725
:103A7000E8E9F1E0E4911896EC9318971D960D9300
:103A80001D932D933C935097E5EFF4E09183808351
:103A900030EC328328EA2383A1E0A483A4E6A58343
:103AA000EFEEF4E0918380833283238320E3248349
:103AB00025E12583A0EEB4E013961C921E92129786
:103AC00014964D935D936D937C93179720E731E0A7
:103AD00011963C932E931C96EC921C9728EE33E0A3
:103AE0001E963C932E931D979A838983828193819E
:103AF000A481B5818B839C83AD83BE83CE01019667
:103B00000E940B1C26960FB6F894DEBF0FBECDBFE9
:103B1000DF91CF911F910F91FF90EF900895CF9378
:103B2000DF93CDB7DEB7AF970FB6F894DEBF0FBE09
:103B3000CDBF789484B5826084BD84B5816084BD36
:103B400085B5826085BD85B5816085BD80916E003B
:103B5000816080936E00109281008091810082606C
:103B600080938100809181008160809381008091A9
:103B700080008160809380008091B1008460809398
:103B8000B1008091B00081608093B00080917A0094
:103B9000846080937A0080917A00826080937A00BA
:103BA00080917A00816080937A0080917A008068A9
:103BB00080937A001092C10061E087E00E94B80112
:103BC00060E087E00E946C0161E086E00E94B8013D
:103BD00060E086E00E946C0161E085E00E94B8012F
:103BE00060E085E00E946C0160E082E00E94B80124
:103BF00060E083E00E94B80160E084E00E94B801C8
:103C0000E091EE03F091EF0382E08083E091EA031C
:103C1000F091EB031082E091EC03F091ED038FEC57
:103C200080831092F603E091F203F091F30386E0B3
:103C30008083E091F003F091F103808180618083C3
:103C4000E091F003F091F103808188608083E0913E
:103C5000F003F091F103808180688083E091F003AC
:103C6000F091F10380818F7D808382EA91E09A83D5
:103C700089838091F7049091F804A091F904B091A0
:103C8000FA048B839C83AD83BE839E012F5F3F4FDD
:103C90007901C9010E94F10FE091DC03E353E530A3
:103CA00030F4F0E0E75BFE4F808181110BC086E7C6
:103CB00092E00E940F0D61E070E080E090E00E94D1
:103CC0001902F9CF8091DD03882309F417C180918F
:103CD000DC03843309F417C1873309F423C10E943C
:103CE0002C01811102C272E0972EECEFAE2EBB24A4
:103CF000BA940E942C018111F8C16CED72E08EED36
:103D000093E00E946A0C1AA619A61CA61BA61EA662
:103D10001DA663E170E0CE0189960E94A70D29A53A
:103D20003AA581110AC12115310519F0C9010E9476
:103D300011291AA619A61EA61DA61CA61BA60E941E
:103D400009231CA21BA21EA21DA218A61FA22FEFB0
:103D50003FEF40E050E00E94082720E1A7010E94C9
:103D60006C23F70101900020E9F731978F010E19BC
:103D70001F09B801CE0183960E94A70D2BA13CA17B
:103D80008111E5C02115310519F0C9010E941129E1
:103D90001CA21BA218A61FA21EA21DA20BA11CA141
:103DA0000115110511F1CFA0D8A4C801C114D10487
:103DB000D1F08DA59EA5C80ED91EB601CE0189965B
:103DC0000E94A70D882359F029A53AA58DA59EA587
:103DD000B801820F931F0E94822ADEA6CDA68BA176
:103DE0009CA1009711F00E941129C9A4DAA40E9495
:103DF0002C0181115CC18091BB049091BC04DC0159
:103E0000ED91FC910688F789E02D0995882309F446
:103E1000A5C0E1E0F0E0F093C604E093C50487E0BC
:103E2000E8E1F1E0D70101900D928A95E1F7D70121
:103E300085E090E02D91E091BD04F091BE04E80F83
:103E4000F91F208301968C309105A1F70091BD04E4
:103E50001091BE04D8011C969C921C978091C204BC
:103E60001D968C931D978091C1041E968C93409053
:103E7000BF045090C004B201C6010E946123419664
:103E80004816590608F0A1C08091BB049091BC046B
:103E9000DC01ED91FC910488F589E02D099568E13C
:103EA00073E08EED93E00E946A0C4090DE04509027
:103EB000DF04052C000C660877082AE0B301A20194
:103EC00077FE0DC06DE28EED93E00E94F80444276A
:103ED0005527BA0144195509660977092AE08EED7C
:103EE00093E00E94790C84E293E00E940F0D68E851
:103EF00073E180E090E00E941902E9C00E94D40EB4
:103F00008111E5CEECCE80E591E00E94640185E36D
:103F100090E00E94A90E85FDE2CE8BEB92E00E941C
:103F20000F0DDDCE80E591E00E9464018EE290E00D
:103F30000E94A90E80FDD3CEF0CF83E190E09EA732
:103F40008DA76AEF72E0C9010E94822AF8CE18A7F5
:103F50000FA3B701C9010E94822A20CF6091D80423
:103F60007091D9048091BB049091BC04DC01ED9167
:103F7000FC914091DA045091DB046115710571F0F8
:103F80000088F189E02D0995019709F442CFEEEF01
:103F9000FFEFF093DF04E093DE0481CF0684F78522
:103FA000E02D62EA462E61E0562E5A824982009147
:103FB000D4041091D5042091D6043091D7040B83FA
:103FC0001C832D833E83B701DECF4FE050E0B80164
:103FD000C6010E940A01AC01455051096091BD041F
:103FE0007091BE0480E10E9457020E944B026093D0
:103FF000C7047093C8048093C9049093CA04609363
:10400000CB047093CC048093CD049093CE04809124
:10401000BB049091BC04DC01ED91FC910084F1851E
:10402000E02D0995892B11F50E944B020091CB04DC
:104030001091CC042091CD043091CE042B013C0191
:10404000401A510A620A730A2091C3043091C404D1
:10405000A8EEB3E00E949327461657066806790635
:10406000B0F2B092DF04A092DE040ECFCE018396B0
:104070000E940503643071058105910509F004CFA4
:10408000E091BD04F091BE048381811128C00E949B
:104090004B026093CB047093CC048093CD04909337
:1040A000CE041092CF041092DF041092DE048EE052
:1040B00093E00E940F0D81EB91E00E940D0A8CEFBE
:1040C00091E00E940D0A89E392E00E940D0A89A501
:1040D0009AA5009709F40DCE0E9411290ACE90E00E
:1040E0009093DF048093DE04CFCE0E942C018823BE
:1040F00009F4A8C081E295E00E941E074B015C0113
:104100008092B3039092B403A092B503B092B60329
:1041100081E295E00E94A306A50194010E94600A35
:104120004B015C018092AF039092B003A092B10367
:10413000B092B2038EE095E00E941E072B013C0175
:104140004092AB035092AC036092AD037092AE0309
:104150008EE095E00E94A306A30192010E94600AEE
:104160006093A7037093A8038093A9039093AA0375
:104170008BEF94E00E941E072B013C014092A303A9
:104180005092A4036092A5037092A6038BEF94E073
:104190000E94A306A30192010E94600A60939F03FC
:1041A0007093A0038093A1039093A20307E913E007
:1041B00024E044E0C501B4010E949F226091A7035E
:1041C0007091A8038091A9039091AA030FE813E0CE
:1041D00024E044E00E949F2260919F037091A0031D
:1041E0008091A1039091A20307E813E024E044E04A
:1041F0000E949F2267E973E08CE393E00E94AC0980
:1042000067E973E08EED93E00E946A0C6FE873E05B
:1042100083E593E00E94AC096FE873E08EED93E0D4
:104220000E946A0CB8018AE693E00E94AC09B801CA
:104230008EED93E00E946A0C68EE73E080E090E0FF
:104240000E9419020E942C01882309F44CC00E948C
:104250004B024B015C012091C1043091C204A8EED5
:10426000B3E00E9493270091CB041091CC042091DD
:10427000CD043091CE0424013501401A510A620A5E
:10428000730A930182016017710782079307B0F0E8
:104290000091C7041091C8042091C9043091CA0448
:1042A00024013501401A510A620A730A93018201FE
:1042B000601771078207930708F051C08091CF04FF
:1042C0008823F1F08CEF9FEF9093DF048093DE045E
:1042D0008091BB049091BC04DC01ED91FC910488B9
:1042E000F589E02D099580E090E0892B09F4F7CC61
:1042F0000E94C204882309F4F2CC0E940000EFCC93
:10430000E091BD04F091BE0480EC8083E091BD0497
:10431000F091BE0411828091BB049091BC04609125
:10432000BD047091BE04DC01ED91FC910280F3812B
:10433000E02D42E050E009958092C7049092C804B5
:10434000A092C904B092CA048092CB049092CC048B
:10435000A092CD04B092CE0481E08093CF048091EE
:10436000BB049091BC04DC01ED91FC910084F185CB
:10437000E02D0995892B09F4B6CFC7010E940503EA
:104380001B01672B09F4D2C08092CB049092CC041D
:10439000A092CD04B092CE04E091BD04F091BE0491
:1043A0008081807F803309F0A0C08091D0049091FB
:1043B000D104892B09F497CF298130E0C9010296F5
:1043C0008E0F9F1FDF01A20FB31F11960C9110E0FB
:1043D000102F0027DC016C91060F111D2D5F3F4F40
:1043E000BF01620F731FA8010E94602AE9818091BA
:1043F000BD049091BE04800F911FE80FF92FF11DAD
:104400001282E091BD04F091BE04298130E0C9011F
:1044100002968E0F9F1F408146704FA76090D00478
:104420007090D104423009F04EC0B801620F731F82
:10443000DF01A60FB71F1396CC901397D12CDC2C5D
:10444000CC2414964C91C40ED11C4BEF5FEF421B51
:10445000530B401B510B420D531D6B5F7F4F6E0F73
:104460007F1FF3010995E091BD04F091BE0480E443
:104470008083E091BD04F091BE044FA44182E0919D
:10448000BD04F091BE04D282E091BD04F091BE045F
:10449000C3828091BB049091BC046091BD04709173
:1044A000BE04DC01ED91FC910280F381E02D44E03B
:1044B00050E009958092C7049092C804A092C90464
:1044C000B092CA0410CF4DEF5FEF421B530B401B5D
:1044D000510B420D531D2D5F3F4F200F311FBF0168
:1044E000620F731FF3010995FECE803CC9F480ED85
:1044F0008083E091BD04F091BE0411828091BB04E1
:104500009091BC046091BD047091BE04DC01ED91FA
:10451000FC910280F381E02D42E050E00995E3CE6A
:10452000803D09F0E0CE1092CF04DDCE0E942C0138
:10453000DACE8091BD049091BE040C941129EF92C3
:104540000F931F93CF93DF93E80134E047FD34E1ED
:10455000042E000C550B57FF03C05195419551098E
:10456000E32E022F242FAE010E949D23CE01DF9166
:10457000CF911F910F91EF9008958F929F92AF92DC
:10458000BF92CF92DF92EF92FF92CF93DF93EC0135
:10459000688179818A819B81611571058105910509
:1045A00021F464E279ED8BE597E02DE133EF41E012
:1045B00050E00E94082749015A019B01AC01A7EA7B
:1045C000B1E40E9427276B017C01ACEEB4EFA5019A
:1045D00094010E943527C60ED71EE81EF91EF7FE6D
:1045E00006C081E0C81AD108E10880E8F80AC8824C
:1045F000D982EA82FB82C701B6019F77DF91CF9112
:10460000FF90EF90DF90CF90BF90AF909F908F90F2
:1046100008958F929F92AF92BF92CF92DF92EF92C6
:10462000FF92609108017091090180910A019091B7
:104630000B01611571058105910521F464E279EDA5
:104640008BE597E02DE133EF41E050E00E94082731
:1046500049015A019B01AC01A7EAB1E40E94272756
:104660006B017C01ACEEB4EFA50194010E943527EB
:10467000C60ED71EE81EF91EF7FE06C081E0C81A56
:10468000D108E10880E8F80AC0920801D092090137
:10469000E0920A01F0920B01C701B6019F77FF90EB
:1046A000EF90DF90CF90BF90AF909F908F90089544
:1046B000609308017093090180930A0190930B01A4
:1046C0000895FC016150704001900110D8F7809569
:1046D00090958E0F9F1F0895BB272A3051F4992380
:1046E00042F4BDE290958095709561957F4F8F4F14
:1046F0009F4F0C947C23BB27FA01A62F62177105EC
:1047000081059105330B30FB66F0AA27660F771FF2
:10471000881F991FAA1FA21710F0A21B639538507B
:10472000A9F7A05DAA3308F0A95DA19336F7B111EE
:10473000B1931082CA010C94D425A9E0B0E0E3EA59
:10474000F3E20C9440276A01F22EB02E102FFBE307
:10475000AF2EA01608F41BE31F5F012F27E0AE0168
:104760004F5F5F4F0E94FC24BC018981982F997094
:10477000913009F43FC09BE2E1FC04C09E2D917092
:10478000E0FC3AC05E2D5071E82FE87083FF46C010
:1047900084E0911101C083E0EF2DE81B8F1508F034
:1047A000E0E0D6018E2F20E2552351F1992329F024
:1047B000D6019C93C60101966C0196012D5F3F4F77
:1047C000E2FE24C08EE4D6018C9391E411969C9372
:1047D000119712968C93D9018E2F90E281111BC0F4
:1047E000E20FF32FF11D10828EEF9FEF2996ECE080
:1047F0000C945C279DE2C6CF90E2C4CF2D938150EC
:104800008111FCCFCE0ED11CE0E0D0CF8EE6D601D8
:104810008C9391E6DBCF9D938150E0CF482F44707D
:1048200082FF3DC084E0911101C083E08F1510F438
:10483000EF2DE81BD6018E2F20E2552309F1992395
:1048400029F0D6019C93C60101966C0196012D5F5B
:104850003F4FE2FE1BC089E4D6018C938EE4119693
:104860008C93119786E412968C93D9018E2F90E247
:10487000882309F4B5CF9D938150FACF2D938150B1
:104880008111FCCFCE0ED11CE0E0D9CF89E6D60154
:104890008C938EE611968C93119786E6E4CF9B015C
:1048A00077FF02C030E020E0A1E0B0E0911102C04B
:1048B000B0E0A0E0F9013196AE0FBF1F8B2C912C18
:1048C000BB2009F461C05401EFEFAE1ABE0AAA0D75
:1048D000BB1DFA161B0619F014F04F2D4A1B51117F
:1048E00088C0E3FC59C07601A42FB0E2A1114FC0EB
:1048F000C40ED11C992309F45BC040E0D601119687
:10490000F60190836D01552309F448C0012F060F6D
:104910009A81582F507184FF03C0913309F40150DC
:1049200010160CF047C0093008F008E0EEE2FE2E49
:104930005B01A01AB10885019194819491082F3FE1
:10494000320729F4D601FC92F60131966F01621705
:10495000730794F1021713077CF5DB01A21BB30B5D
:10496000AA24A394B12CAC0EBD1EAA0DBB1D11969A
:104970008C9121503109D601119628153905F4F092
:10498000F60180836D01DBCFB12CA12CA0CFF70104
:10499000B1937F01A150AACF9111B0CFD601942F2E
:1049A00050E302C05D9391509111FCCFC40ED11C15
:1049B00040E0ACCF01E0BACF80E3DBCF62177307F2
:1049C00031F4963388F4953311F4552369F0F601E8
:1049D0008083FD01842F90E2811108C0A40FB11DD6
:1049E0001C9290E080E002CF81E3F1CF919381505F
:1049F000F3CF911183CF8ACF283008F027E03327F7
:104A0000DA01990F311D87FD9160009661057105EE
:104A100039F432602E5F3D9330E32A95E1F7089533
:104A20009F3F30F080387105610509F03C5F3C5FC5
:104A30003D93913008F08068911DDF93CF931F93D1
:104A40000F93FF92EF92192F987F9695E92F9695E5
:104A50009695E90FFF27EE53FF4F99273327EE2452
:104A6000FF24A701E70105900894079428F4360F66
:104A7000E71EF81E491F511D660F771F881F991FDB
:104A80000694A1F70590079428F4E70EF81E491F35
:104A9000561FC11D770F881F991F661F0694A1F727
:104AA0000590079428F4F80E491F561FC71FD11D03
:104AB000880F991F661F771F0694A1F7059007942A
:104AC00020F4490F561FC71FD81F990F661F771F65
:104AD000881F0694A9F784911095177041F0D69518
:104AE000C79557954795F794E7941A95C1F7E8E667
:104AF000F0E0689415901591359165919591059028
:104B00007FE27395E118F10A430B560BC90BD009EC
:104B1000C0F7E10CF11E431F561FC91FD01D7EF4C4
:104B2000703311F48A95E6CFE894015030F0080F05
:104B30000AF40027021708F4202F2395022F7A3356
:104B400028F079E37D932A95E9F710C07D932A95A3
:104B500089F6069497956795379517951794E118F8
:104B6000F10A430B560BC90BD00998F023957E919F
:104B700073957A3308F070E37C932013B8F77E9135
:104B800070617D9330F0839571E37D9370E32A9596
:104B9000E1F71124EF90FF900F911F91CF91DF91DA
:104BA000992787FD90950895DC01FC01672F71918D
:104BB0007723E1F7329704C07C916D937083629103
:104BC000AE17BF07C8F308950E94262608F481E0B7
:104BD0000895E89409C097FB3EF4909580957095F0
:104BE00061957F4F8F4F9F4F9923A9F0F92F96E939
:104BF000BB279395F695879577956795B795F111AE
:104C0000F8CFFAF4BB0F11F460FF1BC06F5F7F4F4A
:104C10008F4F9F4F16C0882311F096E911C077235C
:104C200021F09EE8872F762F05C0662371F096E865
:104C3000862F70E060E02AF09A95660F771F881F34
:104C4000DAF7880F9695879597F90895990F0008D8
:104C5000550FAA0BE0E8FEEF16161706E807F9074E
:104C6000C0F012161306E407F50798F0621B730BE9
:104C7000840B950B39F40A2661F0232B242B252B6A
:104C800021F408950A2609F4A140A6958FEF811D0D
:104C9000811D08950E945D260C94CE260E94C02698
:104CA00038F00E94C72620F0952311F00C94B72607
:104CB0000C94BD2611240C9402270E94DF2670F369
:104CC000959FC1F3950F50E0551F629FF001729FB1
:104CD000BB27F00DB11D639FAA27F00DB11DAA1FC0
:104CE000649F6627B00DA11D661F829F2227B00D0D
:104CF000A11D621F739FB00DA11D621F839FA00D98
:104D0000611D221F749F3327A00D611D231F849FE7
:104D1000600D211D822F762F6A2F11249F5750403E
:104D20009AF0F1F088234AF0EE0FFF1FBB1F661FB9
:104D3000771F881F91505040A9F79E3F510580F082
:104D40000C94B7260C9402275F3FE4F3983ED4F30B
:104D5000869577956795B795F795E7959F5FC1F726
:104D6000FE2B880F911D9695879597F9089597F9D1
:104D70009F6780E870E060E008959FEF80EC089501
:104D800000240A941616170618060906089500242A
:104D90000A9412161306140605060895092E0394A4
:104DA000000C11F4882352F0BB0F40F4BF2B11F418
:104DB00060FF04C06F5F7F4F8F4F9F4F089557FD77
:104DC0009058440F551F59F05F3F71F04795880F79
:104DD00097FB991F61F09F3F79F087950895121610
:104DE00013061406551FF2CF4695F1DF08C01616BC
:104DF00017061806991FF1CF86957105610508946D
:104E00000895E894BB2766277727CB0197F9089583
:104E1000052E97FB1EF400940E941F2757FD07D014
:104E20000E94712707FC03D04EF40C941F27509565
:104E30004095309521953F4F4F4F5F4F0895909586
:104E40008095709561957F4F8F4F9F4F08950E9479
:104E50009327A59F900DB49F900DA49F800D911D49
:104E600011240895B7FF0C9427270E942727821B3F
:104E7000930B08952F923F924F925F926F927F9281
:104E80008F929F92AF92BF92CF92DF92EF92FF925A
:104E90000F931F93CF93DF93CDB7DEB7CA1BDB0B06
:104EA0000FB6F894DEBF0FBECDBF09942A883988AB
:104EB00048885F846E847D848C849B84AA84B984B2
:104EC000C884DF80EE80FD800C811B81AA81B981BE
:104ED000CE0FD11D0FB6F894DEBF0FBECDBFED01D2
:104EE0000895A1E21A2EAA1BBB1BFD010DC0AA1F2B
:104EF000BB1FEE1FFF1FA217B307E407F50720F043
:104F0000A21BB30BE40BF50B661F771F881F991FBD
:104F10001A9469F760957095809590959B01AC0106
:104F2000BD01CF010895A29FB001B39FC001A39F0F
:104F3000700D811D1124911DB29F700D811D1124D2
:104F4000911D08955058BB27AA270E94BA270C9498
:104F5000CE260E94C02638F00E94C72620F039F4E1
:104F60009F3F19F426F40C94BD260EF4E095E7FB60
:104F70000C94B726E92F0E94DF2658F3BA17620770
:104F800073078407950720F079F4A6F50C940127A0
:104F90000EF4E0950B2EBA2FA02D0B01B901900154
:104FA0000C01CA01A0011124FF27591B99F0593F98
:104FB00050F4503E68F11A16F040A22F232F342FE0
:104FC0004427585FF3CF469537952795A795F0402E
:104FD0005395C9F77EF41F16BA0B620B730B840B43
:104FE000BAF09150A1F0FF0FBB1F661F771F881FFB
:104FF000C2F70EC0BA0F621F731F841F48F4879553
:1050000077956795B795F7959E3F08F0B0CF939544
:10501000880F08F09927EE0F9795879508950E94BD
:10502000262608F48FEF089519F416F40C94BD2683
:105030000C945A280E94E726B8F39923C9F3B6F3D3
:105040009F57550B87FF0E9468280024A0E640EA7E
:10505000900180585695979528F4805C660F771FCD
:10506000881F20F026173707480730F4621B730BA0
:10507000840B202931294A2BA695179407942025C3
:1050800031254A2758F7660F771F881F20F026170B
:105090003707480730F4620B730B840B200D311D6A
:1050A000411DA09581F7B901842F9158880F9695DD
:1050B000879508959F3F31F0915020F4879577951B
:1050C0006795B795880F911D9695879597F90895DF
:1050D00091505040660F771F881FD2F70895EE0F4A
:1050E000FF1F0590F491E02D09940F931F93CF9328
:1050F000DF938230910510F482E090E0E0913C056E
:10510000F0913D0530E020E0B0E0A0E0309799F468
:105110002115310509F44AC0281B390B243031050B
:10512000D8F58A819B816115710589F1FB01938313
:105130008283FE0111C04081518102811381481791
:105140005907E0F04817590799F4109761F0129643
:105150000C93129713961C933296CF01DF91CF9147
:105160001F910F91089500933C0510933D05F4CFD6
:105170002115310551F04217530738F0A901DB0121
:105180009A01BD01DF01F801C1CFEF01F9CF909382
:105190003D0580933C05CDCFFE01E20FF31F8193C7
:1051A00091932250310939832883D7CF20913A0532
:1051B00030913B05232B41F420910E0130910F01DA
:1051C00030933B0520933A0520910C0130910D015D
:1051D0002115310541F42DB73EB740911001509192
:1051E0001101241B350BE0913A05F0913B05E217C4
:1051F000F307A0F42E1B3F0B2817390778F0AC01FA
:105200004E5F5F4F2417350748F04E0F5F1F5093D6
:105210003B0540933A05819391939FCFF0E0E0E006
:105220009CCFCF93DF930097E9F0FC013297138274
:105230001282A0913C05B0913D05ED0130E020E0E7
:105240001097A1F420813181820F931F20913A059C
:1052500030913B052817390709F061C0F0933B05F1
:10526000E0933A05DF91CF910895EA01CE17DF0769
:10527000E8F54A815B819E0141155105B1F7E901CD
:10528000FB83EA8349915991C40FD51FEC17FD07A1
:1052900061F4808191810296840F951FE9019983C1
:1052A0008883828193819B838A83F0E0E0E0129679
:1052B0008D919C9113970097B9F52D913C91119781
:1052C000CD010296820F931F20913A0530913B0544
:1052D0002817390739F6309751F510923D0510928D
:1052E0003C05B0933B05A0933A05BCCFD383C28362
:1052F00040815181840F951FC817D90761F44E5F13
:105300005F4F88819981480F591F518340838A815B
:105310009B81938382832115310509F0B0CFF093EF
:105320003D05E0933C059ECFFD01DC01C0CF13821B
:105330001282D7CFB0E0A0E0E0EAF9E20C943C277B
:105340008C01009751F4CB010E9475288C01C80193
:10535000CDB7DEB7E0E10C945827FC01E60FF71F4C
:105360009C0122503109E217F30708F49DC0D901CE
:10537000CD91DC911197C617D70798F0C530D105AC
:1053800030F3CE0104978617970708F3C61BD70B97
:105390002297C193D1936D937C93CF010E941129E1
:1053A000D6CF5B01AC1ABD0A4C018C0E9D1EA0919C
:1053B0003C05B0913D05512C412CF12CE12C10976E
:1053C00031F580913A0590913B058815990509F0D2
:1053D0005CC04616570608F058C080910C019091A9
:1053E0000D01009741F48DB79EB740911001509187
:1053F0001101841B950BE817F90708F055C0F093CD
:105400003B05E0933A05F90171836083A0CF8D914C
:105410009C91119712966C90129713967C9013970B
:10542000A815B90559F56C0142E0C40ED11CCA1487
:10543000DB0420F1AC014A195B09DA0112961597D9
:1054400080F06282738251834083D9016D937C9393
:10545000E114F10471F0D7011396FC93EE931297C7
:1054600076CF22968C0F9D1FF90191838083F301E3
:10547000EFCFF0933D05E0933C0569CF4816590600
:1054800008F42C017D01D3019ACFCB010E9475282D
:105490007C01009749F0AE01B8010E94572AC8016B
:1054A0000E941129870153CF10E000E050CFFB018B
:1054B000DC0102C001900D9241505040D8F7089590
:1054C0006817790768F4FB01DC01E40FF51FA40FEE
:1054D000B51F02C002900E9241505040D8F7089577
:1054E0000C94572ADC0101C06D9341505040E0F705
:1054F0000895FB01DC018D91019080190110D9F311
:10550000990B0895FB01DC0101900D920020E1F759
:10551000089510E0CFEDD0E004C0FE010E946F2896
:0C5520002196C03ED107C9F7F894FFCFD8
:10552C0000C0DEEDBAFEFEED0100000000003E05FD
:10553C00800001005E00000000044D515454040032
:10554C00000000FE08D6148D096B016701CA168095
:10555C000EC6136112D5103709291A49116B17ABF6
:10556C00168609760972096E090102000003000013
:10557C000000870767078D09140900000000F80474
:10558C00580485044505B6049404A80400000000E2
:10559C0020091015CD14B814D215F4168F0E44131F
:1055AC009C1A0E171011EE10A309AB09680CA00978
:1055BC009E09150994094117271B1717900900001C
:1055CC000000C50C0D0A004D6573736167653A20C8
:1055DC0000686F6D6564656D6F2F726F6F6D312F25
:1055EC006C6967687400686F6D652F6665656462C9
:1055FC0061636B004D6573736167653A20526F6F21
:10560C006D31204C69676874204F6E00526F6F6D5E
:10561C0031204C69676874204F666600686F6D6551
:10562C0064656D6F2F726F6F6D322F6C6967687464
:10563C00004D6573736167653A20526F6F6D322050
:10564C004C69676874204F6E00526F6F6D32204C3E
:10565C0069676874204F666600686F6D6564656D78
:10566C006F2F726F6F6D332F6C69676874004D65A7
:10567C0073736167653A20526F6F6D33204C6967A5
:10568C006874204F6E00526F6F6D33204C696768E1
:10569C0074204F66660045746865726E657420737D
:1056AC006869656C6420776173206E6F7420666F17
:1056BC00756E642E20536F7272792C2063616E2785
:1056CC00742072756E20776974686F7574206861C8
:1056DC007264776172652E203A2800457468657291
:1056EC006E6574206361626C65206973206E6F74E3
:1056FC0020636F6E6E65637465642E00417474650F
:10570C006D7074696E67204D51545420636F6E6ECA
:10571C00656374696F6E2E2E2E00486F6D655F6128
:10572C0075746F6D6174696F6E5F554E4F00636F6A
:10573C006E6E6563746564006661696C65642C20CB
:10574C0072633D002074727920616761696E206913
:10575C006E2035207365636F6E647300686F6D65C2
:10576C002F726F6F6D312F74656D7061726174750E
:10577C00726500686F6D652F726F6F6D322F746577
:10578C006D706172617475726500686F6D652F72F2
:10579C006F6F6D332F74656D7061726174757265A6
:0257AC000000FB
:00000001FF
